:100000000C942A000C943C000C943C000C943C0092
:100010000C943C000C943C000C943C000C943C0070
:100020000C943C000C943C000C943C000C943C0060
:100030000C943C000C941A070C943C000C94490757
:100040000C943C000C943C000C943C000C943C0040
:100050000C943C0011241FBECFE5D8E0DEBFCDBF1D
:1000600020E0A0E6B0E001C01D92A636B207E1F79D
:100070000E9495070C9474090C940000CF93DF93B1
:10008000CDB7DEB7C656D1090FB6F894DEBF0FBEA6
:10009000CDBF87E390E0FC0180819181A281B38193
:1000A00027E330E08E60F90180839183A283B383DC
:1000B00080E090E0A0E2B1E48D8F9E8FAF8FB8A377
:1000C00020E030E04AE753E46D8D7E8D8F8D98A15E
:1000D0000E94DF086FAB78AF89AF9AAF8FA998AD58
:1000E000A9ADBAAD89A39AA3ABA3BCA320E030E02D
:1000F00040E85FE369A17AA18BA19CA10E94590805
:1001000088232CF481E090E09EA38DA35EC020E0C4
:100110003FEF4FE757E469A17AA18BA19CA10E9410
:10012000DA08882309F00CF43EC020E030E040E219
:1001300051E46D8D7E8D8F8D98A10E94DF086BAF8D
:100140007CAF8DAF9EAF8BAD9CADADADBEAD8BAB7F
:100150009CABADABBEAB6BA97CA98DA99EA90E943F
:100160005E0823966CAF7DAF8EAF9FAF239721962D
:10017000AEADBFAD2197BEA3ADA310C089E190E0A5
:1001800098A78FA38FA198A50197F1F798A78FA3A0
:1001900000008DA19EA101979EA38DA38DA19EA17C
:1001A000009761F71DC069A17AA18BA19CA10E9453
:1001B0005E0827966CAF7DAF8EAF9FAF27972596D1
:1001C000EEADFFAD2597FEA3EDA38DA19EA19AA74D
:1001D00089A789A59AA50197F1F79AA789A7000091
:1001E0000E9421038BE390E0FC0180819181A28138
:1001F000B3812BE330E08827F90180839183A283C8
:10020000B38380E090E0A0E2B1E48F87988BA98B64
:10021000BA8B20E030E04AE753E46F85788989891A
:100220009A890E94DF082B966CAF7DAF8EAF9FAF8F
:100230002B972B968CAD9DADAEADBFAD2B978B8B19
:100240009C8BAD8BBE8B20E030E040E85FE36B8998
:100250007C898D899E890E94590888232CF481E02D
:1002600090E0988F8F8B62C020E03FEF4FE757E41C
:100270006B897C898D899E890E94DA08882309F020
:100280000CF442C020E030E040E251E46F85788910
:1002900089899A890E94DF082F966CAF7DAF8EAF57
:1002A0009FAF2F972F968CAD9DADAEADBFAD2F9765
:1002B0008FA798ABA9ABBAAB6FA578A989A99AA962
:1002C0000E945E0863966CAF7DAF8EAF9FAF639761
:1002D0006196AEADBFAD6197B88FAF8B10C089E1AD
:1002E00090E09A8F898F898D9A8D0197F1F79A8F77
:1002F000898F00008F89988D0197988F8F8B8F89B8
:10030000988D009761F71DC06B897C898D899E89C6
:100310000E945E0867966CAF7DAF8EAF9FAF679708
:100320006596EEADFFAD6597F88FEF8B8F89988D51
:100330009C8F8B8F8B8D9C8D0197F1F79C8F8B8F72
:10034000000081E090E00E94850388E390E00E9435
:10035000850380E090E0A0E2B1E489839A83AB83D7
:10036000BC8320E030E04AE753E469817A818B81E5
:100370009C810E94DF086B966CAF7DAF8EAF9FAF04
:100380006B976B968CAD9DADAEADBFAD6B978D830E
:100390009E83AF83B88720E030E040E85FE36D8163
:1003A0007E818F8198850E94590888232CF481E0F2
:1003B00090E09A87898762C020E03FEF4FE757E4DB
:1003C0006D817E818F8198850E94DA08882309F0EB
:1003D0000CF442C020E030E040E251E469817A81CF
:1003E0008B819C810E94DF086F966CAF7DAF8EAFD2
:1003F0009FAF6F976F968CAD9DADAEADBFAD6F9754
:100400008BA79CA7ADA7BEA76BA57CA58DA59EA518
:100410000E945E08A3966CAF7DAF8EAF9FAFA3978F
:10042000A196AEADBFADA197BA87A98710C089E1EB
:1004300090E09C878B878B859C850197F1F79C8743
:100440008B87000089859A8501979A878987898596
:100450009A85009761F71DC06D817E818F81988597
:100460000E945E08A7966CAF7DAF8EAF9FAFA79737
:10047000A596EEADFFADA597FA87E98789859A85A0
:100480009E878D878D859E850197F1F79E878D8745
:10049000000086E090E00E9485038EE090E00E94DC
:1004A00085038FE090E00E9485030000CA59DF4F6A
:1004B0000FB6F894DEBF0FBECDBFDF91CF91089588
:1004C000CF93DF93CDB7DEB7A2970FB6F894DEBF18
:1004D0000FBECDBF88E390E0FC0180819181A281B5
:1004E000B38128E330E08860F90180839183A2839F
:1004F000B38380E090E0A0EFB1E489839A83AB837B
:10050000BC8320E030E04AE753E469817A818B8143
:100510009C810E94DF086B8B7C8B8D8B9E8B8B89E3
:100520009C89AD89BE898D839E83AF83B88720E087
:1005300030E040E85FE36D817E818F8198850E9485
:10054000590888232CF481E090E09A87898755C068
:1005500020E03FEF4FE757E46D817E818F819885E2
:100560000E94DA088823D9F1D4F120E030E040E29B
:1005700051E469817A818B819C810E94DF086F8BB5
:10058000788F898F9A8F8F89988DA98DBA8D8F8753
:10059000988BA98BBA8B6F85788989899A890E94F3
:1005A0005E086B8F7C8F8D8F9E8FAB8DBC8DBA87D5
:1005B000A98710C089E190E09C878B878B859C85FB
:1005C0000197F1F79C878B87000089859A850197B1
:1005D0009A87898789859A85009761F719C06D8107
:1005E0007E818F8198850E945E086F8F78A389A392
:1005F0009AA3EF8DF8A1FA87E98789859A859E8766
:100600008D878D859E850197F1F79E878D870000E8
:1006100088E390E0FC0180819181A281B38128E38D
:1006200030E0877FF90180839183A283B383000048
:10063000A2960FB6F894DEBF0FBECDBFDF91CF916B
:100640000895CF93DF93CDB7DEB78AE390E0FC0146
:1006500080819181A281B3812AE330E08827F9016A
:1006600080839183A283B38388E390E0FC0180813F
:100670009181A281B38128E330E08460F901808315
:100680009183A283B38388E390E0FC018081918110
:10069000A281B38128E330E08D7FF90180839183CB
:1006A000A283B3830E94600288E390E0FC01808112
:1006B0009181A281B38128E330E0837EF9018083B8
:1006C0009183A283B38388E390E0FC0180819181D0
:1006D000A281B38128E330E08D7FF901808391838B
:1006E000A283B38388E390E0FC0180819181A281A1
:1006F000B38128E330E08D7FF90180839183A28369
:10070000B3830000DF91CF910895CF93DF93CDB7EE
:10071000DEB7A4970FB6F894DEBF0FBECDBF988B9F
:100720008F870E94210388E390E0FC018081918102
:10073000A281B38128E330E08D7FF901808391832A
:10074000A283B3838BE390E0DC014D915D916D91C9
:100750007C918F859889092E000CAA0BBB0B2BE38B
:1007600030E0842B952BA62BB72BF9018083918346
:10077000A283B38380E090E0A0EAB0E489839A8307
:10078000AB83BC8320E030E04AE753E469817A819F
:100790008B819C810E94DF086D8B7E8B8F8B988F65
:1007A0008D899E89AF89B88D8D839E83AF83B887ED
:1007B00020E030E040E85FE36D817E818F819885A5
:1007C0000E94590888232CF481E090E09A87898759
:1007D00055C020E03FEF4FE757E46D817E818F8168
:1007E00098850E94DA088823D9F1D4F120E030E01E
:1007F00040E251E469817A818B819C810E94DF080B
:10080000698F7A8F8B8F9C8F898D9A8DAB8DBC8DE4
:10081000898B9A8BAB8BBC8B69897A898B899C89F4
:100820000E945E086D8F7E8F8F8F98A3AD8DBE8DD9
:10083000BA87A98710C089E190E09C878B878B8558
:100840009C850197F1F79C878B87000089859A85A5
:1008500001979A87898789859A85009761F719C0DA
:100860006D817E818F8198850E945E0869A37AA33D
:100870008BA39CA3E9A1FAA1FA87E98789859A85C8
:100880009E878D878D859E850197F1F79E878D8741
:1008900000000E9460028BE390E0FC018081918166
:1008A000A281B3812BE330E08827F9018083918313
:1008B000A283B3830000A4960FB6F894DEBF0FBEE8
:1008C000CDBFDF91CF910895CF93DF93CDB7DEB742
:1008D000A3970FB6F894DEBF0FBECDBF8F870E94DF
:1008E000210388E390E0FC0180819181A281B381A2
:1008F00028E330E08260F90180839183A283B3838F
:100900008BE390E0DC014D915D916D917C918F8541
:10091000882F90E0A0E0B0E02BE330E0842B952B13
:10092000A62BB72BF90180839183A283B38380E048
:1009300090E0A0E8BFE389839A83AB83BC8320E087
:1009400030E04AE753E469817A818B819C810E947F
:10095000DF086C8B7D8B8E8B9F8B8C899D89AE89FC
:10096000BF898D839E83AF83B88720E030E040E865
:100970005FE36D817E818F8198850E94590888236D
:100980002CF481E090E09A87898755C020E03FEF02
:100990004FE757E46D817E818F8198850E94DA0848
:1009A0008823D9F1D4F120E030E040E251E46981BC
:1009B0007A818B819C810E94DF08688F798F8A8F72
:1009C0009B8F888D998DAA8DBB8D888B998BAA8BD7
:1009D000BB8B688979898A899B890E945E086C8FA4
:1009E0007D8F8E8F9F8FAC8DBD8DBA87A98710C0EC
:1009F00089E190E09C878B878B859C850197F1F737
:100A00009C878B87000089859A8501979A878987BB
:100A100089859A85009761F719C06D817E818F81E4
:100A200098850E945E0868A379A38AA39BA3E8A186
:100A3000F9A1FA87E98789859A859E878D878D85B3
:100A40009E850197F1F79E878D8700000E946002C6
:100A50008BE390E0FC0180819181A281B3812BE343
:100A600030E08827F90180839183A283B38300005B
:100A7000A3960FB6F894DEBF0FBECDBFDF91CF9126
:100A80000895CF93DF9300D000D0CDB7DEB79C831D
:100A90008B831A82198228C08B819C819C012F5FD5
:100AA0003F4F3C832B83FC0180810E946404898139
:100AB0009A8101969A83898389819A8180319105EF
:100AC00021F480EC90E00E94850389819A818F3126
:100AD000910551F41A82198281E090E00E94850309
:100AE00080E890E00E9485038B819C81FC018081DD
:100AF000882391F6000000000F900F900F900F9048
:100B0000DF91CF910895CF93DF93CDB7DEB789E220
:100B100090E023E3FC01208380E490E0FC0120814D
:100B200080E490E02F7BFC01208380E490E0FC01D6
:100B3000208180E490E02F7DFC0120838BE290E017
:100B4000FC0120818BE290E02D7FFC01208380E47A
:100B500090E0FC01208180E490E0277FFC0120836D
:100B600080E490E0FC01208180E490E02260FC01C0
:100B7000208380E490E0FC01208180E490E0246008
:100B8000FC0120838AE290E0FC0120818AE290E06F
:100B90002B7FFC0120838AE290E0FC0120818AE225
:100BA00090E02860FC0120838AE290E0FC01208133
:100BB0008AE290E02061FC0120830000DF91CF9168
:100BC0000895CF93DF930F92CDB7DEB789838981E4
:100BD000813099F48AE290E0FC0120818AE290E081
:100BE0002068FC0120838FE590E0FC0120818FE5E7
:100BF00090E02068FC0120831BC08AE290E0FC01A9
:100C000020818AE290E02F77FC0120838AE290E045
:100C1000FC0120818AE290E02F77FC0120838FE5A0
:100C200090E0FC0120818FE590E02F77FC0120838C
:100C300000000F90DF91CF910895CF93DF930F9233
:100C4000CDB7DEB7898300008BE290E0FC018081A4
:100C5000829586958770882F90E0817099270097FC
:100C600099F38CE290E02981FC01208300000F9031
:100C7000DF91CF910895CF93DF93CDB7DEB700001A
:100C80008BE290E0FC018081881F8827881F882FD5
:100C900090E081709927009799F38CE290E0FC0135
:100CA0008081DF91CF910895CF93DF9300D0CDB7AE
:100CB000DEB79A8389830BC089819A81FC01808188
:100CC0000E941D0689819A8101969A838983898170
:100CD0009A81FC018081882379F7000000000F9041
:100CE0000F90DF91CF910895CF93DF9300D0CDB7D0
:100CF000DEB78CE290E09A838983000089819A8133
:100D0000FC018081882399F000008BE290E0FC01D7
:100D10008081881F8827881F882F90E081709927FD
:100D2000009799F78CE290E0FC01808101C080E09F
:100D30000F900F90DF91CF910895CF93DF9300D064
:100D400000D000D0CDB7DEB76B837C838D839E83CC
:100D5000CE0103969A83898389819A81FC018081DF
:100D60000E941D0689819A810196FC0180810E9462
:100D70001D0689819A810296FC0180810E941D06D0
:100D800089819A810396FC0180810E941D060000E2
:100D90000F900F900F900F900F900F90DF91CF91C9
:100DA00008950F931F93CF93DF9300D000D000D00E
:100DB0000F92CDB7DEB71B82CE0103969A8389834B
:100DC0000E943B06282F89819A81FC01208389811A
:100DD0009A818C010F5F1F4F0E943B06F8018083B0
:100DE00089819A818C010E5F1F4F0E943B06F8019A
:100DF000808389819A818C010D5F1F4F0E943B0681
:100E0000F80180838B81882F90E0A0E0B0E08C8394
:100E10009D83AE83BF836C817D818E819F81279668
:100E20000FB6F894DEBF0FBECDBFDF91CF911F91FB
:100E30000F9108951F920F920FB60F9211242F93C6
:100E40003F934F935F936F937F938F939F93AF9352
:100E5000BF93EF93FF93CF93DF93CDB7DEB780912E
:100E6000600090916100FC0109950000DF91CF9135
:100E7000FF91EF91BF91AF919F918F917F916F9172
:100E80005F914F913F912F910F900FBE0F901F9048
:100E900018951F920F920FB60F9211242F933F9324
:100EA0004F935F936F937F938F939F93AF93BF9372
:100EB000EF93FF93CF93DF93CDB7DEB780916200BE
:100EC00090916300FC0109950000DF91CF91FF91A3
:100ED000EF91BF91AF919F918F917F916F915F91B2
:100EE0004F913F912F910F900FBE0F901F9018952B
:100EF000CF93DF93CDB7DEB780916400909165000A
:100F000080589F4F0E9485038091640090916500F6
:100F1000019690936500809364000E943B060E94B6
:100F200064040000DF91CF910895CF93DF93CDB794
:100F3000DEB7A3970FB6F894DEBF0FBECDBF0E94F9
:100F40003E000E94830581E00E94E10588E797E06A
:100F5000909361008093600081E090E00E9485039F
:100F600080E3898380EC90E00E94850389810E9460
:100F700064048981893351F480E3898381E090E0BE
:100F80000E948503109265001092640080E090E852
:100F9000ABEBB4E48A839B83AC83BD8320E030E079
:100FA0004AE753E46A817B818C819D810E94DF083E
:100FB0006C8B7D8B8E8B9F8B8C899D89AE89BF8935
:100FC0008E839F83A887B98720E030E040E85FE305
:100FD0006E817F81888599850E94590888232CF429
:100FE00081E090E09B878A8755C020E03FEF4FE784
:100FF00057E46E817F81888599850E94DA0888236D
:10100000D9F1D4F120E030E040E251E46A817B8103
:101010008C819D810E94DF08688F798F8A8F9B8FDA
:10102000888D998DAA8DBB8D888B998BAA8BBB8B54
:10103000688979898A899B890E945E086C8F7D8F77
:101040008E8F9F8FAC8DBD8DBB87AA8710C089E125
:1010500090E09D878C878C859D850197F1F79D8712
:101060008C8700008A859B8501979B878A878A8564
:101070009B85009761F719C06E817F81888599856E
:101080000E945E0868A379A38AA39BA388A199A163
:101090009B878A878A859B859F878E878E859F857C
:1010A0000197F1F79F878E87000089818F5F898381
:1010B00059CF0E948D0808F481E008950E94B90874
:1010C00088F09F5798F0B92F9927B751B0F0E1F009
:1010D000660F771F881F991F1AF0BA95C9F714C0B9
:1010E000B13091F00E94D308B1E008950C94D30878
:1010F000672F782F8827B85F39F0B93FCCF38695F2
:1011000077956795B395D9F73EF49095809570954E
:1011100061957F4F8F4F9F4F0895990F0008550F8E
:10112000AA0BE0E8FEEF16161706E807F907C0F06D
:1011300012161306E407F50798F0621B730B840B75
:10114000950B39F40A2661F0232B242B252B21F44F
:1011500008950A2609F4A140A6958FEF811D811DEF
:10116000089557FD9058440F551F59F05F3F71F097
:101170004795880F97FB991F61F09F3F79F08795FE
:101180000895121613061406551FF2CF4695F1DF87
:1011900008C0161617061806991FF1CF8695710517
:1011A000610508940895E894BB2766277727CB014B
:1011B00097F908950E948D0808F48FEF08950E9412
:1011C000F2080C9463090E94550938F00E945C09EA
:1011D00020F0952311F00C944C090C945209112421
:1011E0000C94D4080E94B10870F3959FC1F3950F39
:1011F00050E0551F629FF001729FBB27F00DB11D9B
:10120000639FAA27F00DB11DAA1F649F6627B00D2A
:10121000A11D661F829F2227B00DA11D621F739F13
:10122000B00DA11D621F839FA00D611D221F749F21
:101230003327A00D611D231F849F600D211D822F68
:10124000762F6A2F11249F5750409AF0F1F088238F
:101250004AF0EE0FFF1FBB1F661F771F881F9150BC
:101260005040A9F79E3F510580F00C944C090C9416
:10127000D4085F3FE4F3983ED4F38695779567955D
:10128000B795F795E7959F5FC1F7FE2B880F911DE6
:101290009695879597F9089597F99F6780E870E08C
:1012A00060E008959FEF80EC089500240A941616DC
:1012B000170618060906089500240A941216130644
:1012C000140605060895092E0394000C11F48823D2
:1012D00052F0BB0F40F4BF2B11F460FF04C06F5FEE
:0C12E0007F4F8F4F9F4F0895F894FFCF71
:00000001FF
