:100000000C942A000C943F000C943F000C943F0089
:100010000C943F000C943F000C943F000C943F0064
:100020000C943F000C943F000C943F000C943F0054
:100030000C943F000C943F000C943F000C943F0044
:100040000C943F000C943F000C943F000C943F0034
:100050000C943F0011241FBECFE5D8E0DEBFCDBF1A
:1000600010E0A0E6B0E0E4E9FFE002C005900D92E8
:10007000A836B107D9F70E9486050C94C8070C94DE
:100080000000CF93DF93CDB7DEB7C656D1090FB6C8
:10009000F894DEBF0FBECDBF87E390E0FC01808106
:1000A0009181A281B38127E330E08E60F9018083E2
:1000B0009183A283B38380E090E0A0E2B1E48D8FCE
:1000C0009E8FAF8FB8A320E030E04AE753E46D8DF8
:1000D0007E8D8F8D98A10E9433076FAB78AF89AF6B
:1000E0009AAF8FA998ADA9ADBAAD89A39AA3ABA3D6
:1000F000BCA320E030E040E85FE369A17AA18BA1D6
:100100009CA10E94AD0688232CF481E090E09EA380
:100110008DA35EC020E03FEF4FE757E469A17AA1CD
:100120008BA19CA10E942E07882309F00CF43EC0ED
:1001300020E030E040E251E46D8D7E8D8F8D98A1FE
:100140000E9433076BAF7CAF8DAF9EAF8BAD9CAD84
:10015000ADADBEAD8BAB9CABADABBEAB6BA97CA963
:100160008DA99EA90E94B20623966CAF7DAF8EAF7B
:100170009FAF23972196AEADBFAD2197BEA3ADA390
:1001800010C089E190E098A78FA38FA198A501974F
:10019000F1F798A78FA300008DA19EA101979EA3C0
:1001A0008DA38DA19EA1009761F71DC069A17AA1C1
:1001B0008BA19CA10E94B20627966CAF7DAF8EAF3B
:1001C0009FAF27972596EEADFFAD2597FEA3EDA334
:1001D0008DA19EA19AA789A789A59AA50197F1F754
:1001E0009AA789A700000E9424038BE390E0FC01FA
:1001F00080819181A281B3812BE330E08827F901CE
:1002000080839183A283B38380E090E0A0E2B1E495
:100210008F87988BA98BBA8B20E030E04AE753E4B4
:100220006F85788989899A890E9433072B966CAFEC
:100230007DAF8EAF9FAF2B972B968CAD9DADAEADA6
:10024000BFAD2B978B8B9C8BAD8BBE8B20E030E0B2
:1002500040E85FE36B897C898D899E890E94AD06A9
:1002600088232CF481E090E0988F8F8B62C020E08F
:100270003FEF4FE757E46B897C898D899E890E9407
:100280002E07882309F00CF442C020E030E040E261
:1002900051E46F85788989899A890E9433072F965E
:1002A0006CAF7DAF8EAF9FAF2F972F968CAD9DAD6E
:1002B000AEADBFAD2F978FA798ABA9ABBAAB6FA56B
:1002C00078A989A99AA90E94B20663966CAF7DAFFE
:1002D0008EAF9FAF63976196AEADBFAD6197B88F9C
:1002E000AF8B10C089E190E09A8F898F898D9A8DAC
:1002F0000197F1F79A8F898F00008F89988D019768
:10030000988F8F8B8F89988D009761F71DC06B89AF
:100310007C898D899E890E94B20667966CAF7DAFFD
:100320008EAF9FAF67976596EEADFFAD6597F88F7F
:10033000EF8B8F89988D9C8F8B8F8B8D9C8D0197E8
:10034000F1F79C8F8B8F000081E090E00E94880382
:1003500088E390E00E94880380E090E0A0E2B1E4AE
:1003600089839A83AB83BC8320E030E04AE753E47F
:1003700069817A818B819C810E9433076B966CAF77
:100380007DAF8EAF9FAF6B976B968CAD9DADAEADD5
:10039000BFAD6B978D839E83AF83B88720E030E03D
:1003A00040E85FE36D817E818F8198850E94AD0674
:1003B00088232CF481E090E09A87898762C020E04E
:1003C0003FEF4FE757E46D817E818F8198850E94D2
:1003D0002E07882309F00CF442C020E030E040E210
:1003E00051E469817A818B819C810E9433076F96E9
:1003F0006CAF7DAF8EAF9FAF6F976F968CAD9DAD9D
:10040000AEADBFAD6F978BA79CA7ADA7BEA76BA5E1
:100410007CA58DA59EA50E94B206A3966CAF7DAF6C
:100420008EAF9FAFA397A196AEADBFADA197BA8790
:10043000A98710C089E190E09C878B878B859C857C
:100440000197F1F79C878B87000089859A85019732
:100450009A87898789859A85009761F71DC06D8184
:100460007E818F8198850E94B206A7966CAF7DAF82
:100470008EAF9FAFA797A596EEADFFADA597FA8774
:10048000E98789859A859E878D878D859E850197C9
:10049000F1F79E878D87000086E090E00E94880338
:1004A0008EE090E00E9488038FE090E00E94880335
:1004B0000000CA59DF4F0FB6F894DEBF0FBECDBFA4
:1004C000DF91CF910895CF93DF93CDB7DEB7A29799
:1004D0000FB6F894DEBF0FBECDBF88E390E0FC01FD
:1004E00080819181A281B38128E330E08860F901A5
:1004F00080839183A283B38380E090E0A0EFB1E496
:1005000089839A83AB83BC8320E030E04AE753E4DD
:1005100069817A818B819C810E9433076B8B7C8BF4
:100520008D8B9E8B8B899C89AD89BE898D839E83A3
:10053000AF83B88720E030E040E85FE36D817E81E3
:100540008F8198850E94AD0688232CF481E090E08D
:100550009A87898755C020E03FEF4FE757E46D81C8
:100560007E818F8198850E942E078823D9F1D4F14E
:1005700020E030E040E251E469817A818B819C8106
:100580000E9433076F8B788F898F9A8F8F89988D10
:10059000A98DBA8D8F87988BA98BBA8B6F85788937
:1005A00089899A890E94B2066B8F7C8F8D8F9E8F6E
:1005B000AB8DBC8DBA87A98710C089E190E09C877C
:1005C0008B878B859C850197F1F79C878B87000033
:1005D00089859A8501979A87898789859A85009761
:1005E00061F719C06D817E818F8198850E94B20666
:1005F0006F8F78A389A39AA3EF8DF8A1FA87E98773
:1006000089859A859E878D878D859E850197F1F7CF
:100610009E878D87000088E390E0FC0180819181B6
:10062000A281B38128E330E0877FF9018083918341
:10063000A283B3830000A2960FB6F894DEBF0FBE6C
:10064000CDBFDF91CF910895CF93DF93CDB7DEB7C4
:100650008AE390E0FC0180819181A281B3812AE349
:1006600030E08827F90180839183A283B38388E3F4
:1006700090E0FC0180819181A281B38128E330E088
:100680008460F90180839183A283B38388E390E03F
:10069000FC0180819181A281B38128E330E08D7FCC
:1006A000F90180839183A283B3830E94630288E36C
:1006B00090E0FC0180819181A281B38128E330E048
:1006C000837EF90180839183A283B38388E390E0E2
:1006D000FC0180819181A281B38128E330E08D7F8C
:1006E000F90180839183A283B38388E390E0FC01C6
:1006F00080819181A281B38128E330E08D7FF9016F
:1007000080839183A283B3830000DF91CF9108950A
:10071000CF93DF93CDB7DEB7A4970FB6F894DEBFC3
:100720000FBECDBF988B8F870E94240388E390E093
:10073000FC0180819181A281B38128E330E08D7F2B
:10074000F90180839183A283B3838BE390E0DC0182
:100750004D915D916D917C918F859889092E000C4A
:10076000AA0BBB0B2BE330E0842B952BA62BB72BCE
:10077000F90180839183A283B38380E090E0A0EAB3
:10078000B0E489839A83AB83BC8320E030E04AE7FE
:1007900053E469817A818B819C810E9433076D8B40
:1007A0007E8B8F8B988F8D899E89AF89B88D8D8335
:1007B0009E83AF83B88720E030E040E85FE36D813F
:1007C0007E818F8198850E94AD0688232CF481E07C
:1007D00090E09A87898755C020E03FEF4FE757E4C4
:1007E0006D817E818F8198850E942E078823D9F1A3
:1007F000D4F120E030E040E251E469817A818B81DC
:100800009C810E943307698F7A8F8B8F9C8F898D93
:100810009A8DAB8DBC8D898B9A8BAB8BBC8B698988
:100820007A898B899C890E94B2066D8F7E8F8F8F0B
:1008300098A3AD8DBE8DBA87A98710C089E190E0DD
:100840009C878B878B859C850197F1F79C878B878D
:10085000000089859A8501979A87898789859A8575
:10086000009761F719C06D817E818F8198850E9404
:10087000B20669A37AA38BA39CA3E9A1FAA1FA8784
:10088000E98789859A859E878D878D859E850197C5
:10089000F1F79E878D8700000E9463028BE390E052
:1008A000FC0180819181A281B3812BE330E0882714
:1008B000F90180839183A283B3830000A4960FB6CD
:1008C000F894DEBF0FBECDBFDF91CF910895CF93D7
:1008D000DF93CDB7DEB7A3970FB6F894DEBF0FBE98
:1008E000CDBF8F870E94240388E390E0FC018081C4
:1008F0009181A281B38128E330E08260F901808395
:100900009183A283B3838BE390E0DC014D915D91F1
:100910006D917C918F85882F90E0A0E0B0E02BE373
:1009200030E0842B952BA62BB72BF9018083918384
:10093000A283B38380E090E0A0E8BFE389839A8339
:10094000AB83BC8320E030E04AE753E469817A81DD
:100950008B819C810E9433076C8B7D8B8E8B9F8B50
:100960008C899D89AE89BF898D839E83AF83B8872B
:1009700020E030E040E85FE36D817E818F819885E3
:100980000E94AD0688232CF481E090E09A87898745
:1009900055C020E03FEF4FE757E46D817E818F81A6
:1009A00098850E942E078823D9F1D4F120E030E009
:1009B00040E251E469817A818B819C810E943307F6
:1009C000688F798F8A8F9B8F888D998DAA8DBB8D2B
:1009D000888B998BAA8BBB8B688979898A899B893B
:1009E0000E94B2066C8F7D8F8E8F9F8FAC8DBD8DD8
:1009F000BA87A98710C089E190E09C878B878B8597
:100A00009C850197F1F79C878B87000089859A85E3
:100A100001979A87898789859A85009761F719C018
:100A20006D817E818F8198850E94B20668A379A32B
:100A30008AA39BA3E8A1F9A1FA87E98789859A850A
:100A40009E878D878D859E850197F1F79E878D877F
:100A500000000E9463028BE390E0FC0180819181A1
:100A6000A281B3812BE330E08827F9018083918351
:100A7000A283B3830000A3960FB6F894DEBF0FBE27
:100A8000CDBFDF91CF910895CF93DF9300D000D0F9
:100A9000CDB7DEB79C838B831A82198228C08B81E5
:100AA0009C819C012F5F3F4F3C832B83FC01808105
:100AB0000E94670489819A8101969A83898389813A
:100AC0009A818031910521F480EC90E00E948803A6
:100AD00089819A818F31910551F41A82198281E0BE
:100AE00090E00E94880380E890E00E9488038B8158
:100AF0009C81FC018081882391F6000000000F900A
:100B00000F900F900F90DF91CF910895CF93DF93C7
:100B1000CDB7DEB7A4970FB6F894DEBF0FBECDBF3A
:100B20008AE390E0DC018C918AE390E0FC01108282
:100B30008AE390E0DC018C918AE390E02FEFFC01E6
:100B400020838BE390E0DC018C918BE390E0FC014F
:100B5000108287E390E0DC018C9187E390E0FC0158
:100B6000108287E390E0DC012C9187E390E0206B1A
:100B7000FC01208388E390E0DC018C9188E390E025
:100B8000FC01108288E390E0DC012C9188E390E086
:100B90002061FC0120838DE290E0DC012C918DE24C
:100BA00090E02061FC0120838DE290E0DC012C913B
:100BB0008DE290E02064FC0120830E94410080E6E9
:100BC00090E00E94440580E3898380EC90E00E94DD
:100BD00088038FE290E02981DC012C9300008EE2F3
:100BE00090E0FC018081881F8827881F882F90E073
:100BF00081709927009799F38FE290E0DC018C9146
:100C00008A838A810E94670487E890E00E948803B3
:100C100089810E94670488E390E0FC01208188E3D9
:100C200090E02F7EDC012C9380E090E0AAE7B4E412
:100C30008B839C83AD83BE8320E030E04AE753E49E
:100C40006B817C818D819E810E9433076D8B7E8BB1
:100C50008F8B988F8D899E89AF89B88D8F83988768
:100C6000A987BA8720E030E040E85FE36F817885AC
:100C700089859A850E94AD0688232CF481E090E056
:100C80009C878B8755C020E03FEF4FE757E46F818B
:100C9000788589859A850E942E078823D9F1D4F119
:100CA00020E030E040E251E46B817C818D819E81C7
:100CB0000E943307698F7A8F8B8F9C8F898D9A8DD5
:100CC000AB8DBC8D898B9A8BAB8BBC8B69897A89F8
:100CD0008B899C890E94B2066D8F7E8F8F8F98A31F
:100CE000AD8DBE8DBC87AB8710C089E190E09E873B
:100CF0008D878D859E850197F1F79E878D870000F2
:100D00008B859C8501979C878B878B859C8500971D
:100D100061F719C06F81788589859A850E94B2062E
:100D200069A37AA38BA39CA3E9A1FAA1FC87EB8713
:100D30008B859C85988B8F878F8598890197F1F794
:100D4000988B8F87000089818F5F898389818A339F
:100D500009F03BCF81E3898338CF0E94E10608F494
:100D600081E008950E940D0788F09F5798F0B92FF1
:100D70009927B751B0F0E1F0660F771F881F991FD0
:100D80001AF0BA95C9F714C0B13091F00E94270744
:100D9000B1E008950C942707672F782F8827B85F54
:100DA00039F0B93FCCF3869577956795B395D9F728
:100DB0003EF490958095709561957F4F8F4F9F4F32
:100DC0000895990F0008550FAA0BE0E8FEEF1616DC
:100DD0001706E807F907C0F012161306E407F5072F
:100DE00098F0621B730B840B950B39F40A2661F0A3
:100DF000232B242B252B21F408950A2609F4A14046
:100E0000A6958FEF811D811D089557FD9058440FC1
:100E1000551F59F05F3F71F04795880F97FB991F59
:100E200061F09F3F79F08795089512161306140616
:100E3000551FF2CF4695F1DF08C0161617061806A3
:100E4000991FF1CF86957105610508940895E8947E
:100E5000BB2766277727CB0197F908950E94E10603
:100E600008F48FEF08950E9446070C94B7070E947C
:100E7000A90738F00E94B00720F0952311F00C94D8
:100E8000A0070C94A60711240C9428070E940507BC
:100E900070F3959FC1F3950F50E0551F629FF001CD
:100EA000729FBB27F00DB11D639FAA27F00DB11DE6
:100EB000AA1F649F6627B00DA11D661F829F22276F
:100EC000B00DA11D621F739FB00DA11D621F839FF6
:100ED000A00D611D221F749F3327A00D611D231FCC
:100EE000849F600D211D822F762F6A2F11249F571A
:100EF00050409AF0F1F088234AF0EE0FFF1FBB1F1D
:100F0000661F771F881F91505040A9F79E3F5105DB
:100F100080F00C94A0070C9428075F3FE4F3983E00
:100F2000D4F3869577956795B795F795E7959F5F85
:100F3000C1F7FE2B880F911D9695879597F9089517
:100F400097F99F6780E870E060E008959FEF80EC7C
:100F5000089500240A94161617061806090608951F
:100F600000240A9412161306140605060895092E85
:100F70000394000C11F4882352F0BB0F40F4BF2BF4
:100F800011F460FF04C06F5F7F4F8F4F9F4F089534
:040F9000F894FFCF03
:080F94004D61737465720000E9
:00000001FF
