:100000000C942A000C943F000C943F000C943F0089
:100010000C943F000C943F000C943F000C943F0064
:100020000C943F000C943F000C943F000C943F0054
:100030000C943F000C943F000C943F000C943F0044
:100040000C943F000C943F000C943F000C943F0034
:100050000C943F0011241FBECFE5D8E0DEBFCDBF1A
:1000600010E0A0E6B0E0EEE3F0E102C005900D92F2
:10007000A636B107D9F70E94E1060C941D080C942E
:100080000000CF93DF93CDB7DEB7C656D1090FB6C8
:10009000F894DEBF0FBECDBF87E390E0FC01808106
:1000A0009181A281B38127E330E08E60F9018083E2
:1000B0009183A283B38380E090E0A0E2B1E48D8FCE
:1000C0009E8FAF8FB8A320E030E04AEF54E46D8DEF
:1000D0007E8D8F8D98A10E9488076FAB78AF89AF16
:1000E0009AAF8FA998ADA9ADBAAD89A39AA3ABA3D6
:1000F000BCA320E030E040E85FE369A17AA18BA1D6
:100100009CA10E94020788232CF481E090E09EA32A
:100110008DA35EC020E03FEF4FE757E469A17AA1CD
:100120008BA19CA10E948307882309F00CF43EC098
:1001300020E030E040E251E46D8D7E8D8F8D98A1FE
:100140000E9488076BAF7CAF8DAF9EAF8BAD9CAD2F
:10015000ADADBEAD8BAB9CABADABBEAB6BA97CA963
:100160008DA99EA90E94070723966CAF7DAF8EAF25
:100170009FAF23972196AEADBFAD2197BEA3ADA390
:1001800010C088EC90E098A78FA38FA198A5019745
:10019000F1F798A78FA300008DA19EA101979EA3C0
:1001A0008DA38DA19EA1009761F71DC069A17AA1C1
:1001B0008BA19CA10E94070727966CAF7DAF8EAFE5
:1001C0009FAF27972596EEADFFAD2597FEA3EDA334
:1001D0008DA19EA19AA789A789A59AA50197F1F754
:1001E0009AA789A700000E9424038BE390E0FC01FA
:1001F00080819181A281B3812BE330E08827F901CE
:1002000080839183A283B38380E090E0A0E2B1E495
:100210008F87988BA98BBA8B20E030E04AEF54E4AB
:100220006F85788989899A890E9488072B966CAF97
:100230007DAF8EAF9FAF2B972B968CAD9DADAEADA6
:10024000BFAD2B978B8B9C8BAD8BBE8B20E030E0B2
:1002500040E85FE36B897C898D899E890E94020753
:1002600088232CF481E090E0988F8F8B62C020E08F
:100270003FEF4FE757E46B897C898D899E890E9407
:100280008307882309F00CF442C020E030E040E20C
:1002900051E46F85788989899A890E9488072F9609
:1002A0006CAF7DAF8EAF9FAF2F972F968CAD9DAD6E
:1002B000AEADBFAD2F978FA798ABA9ABBAAB6FA56B
:1002C00078A989A99AA90E94070763966CAF7DAFA8
:1002D0008EAF9FAF63976196AEADBFAD6197B88F9C
:1002E000AF8B10C088EC90E09A8F898F898D9A8DA2
:1002F0000197F1F79A8F898F00008F89988D019768
:10030000988F8F8B8F89988D009761F71DC06B89AF
:100310007C898D899E890E94070767966CAF7DAFA7
:100320008EAF9FAF67976596EEADFFAD6597F88F7F
:10033000EF8B8F89988D9C8F8B8F8B8D9C8D0197E8
:10034000F1F79C8F8B8F000081E090E00E94880382
:1003500088E390E00E94880380E090E0A0E2B1E4AE
:1003600089839A83AB83BC8320E030E04AEF54E476
:1003700069817A818B819C810E9488076B966CAF22
:100380007DAF8EAF9FAF6B976B968CAD9DADAEADD5
:10039000BFAD6B978D839E83AF83B88720E030E03D
:1003A00040E85FE36D817E818F8198850E9402071E
:1003B00088232CF481E090E09A87898762C020E04E
:1003C0003FEF4FE757E46D817E818F8198850E94D2
:1003D0008307882309F00CF442C020E030E040E2BB
:1003E00051E469817A818B819C810E9488076F9694
:1003F0006CAF7DAF8EAF9FAF6F976F968CAD9DAD9D
:10040000AEADBFAD6F978BA79CA7ADA7BEA76BA5E1
:100410007CA58DA59EA50E940707A3966CAF7DAF16
:100420008EAF9FAFA397A196AEADBFADA197BA8790
:10043000A98710C088EC90E09C878B878B859C8572
:100440000197F1F79C878B87000089859A85019732
:100450009A87898789859A85009761F71DC06D8184
:100460007E818F8198850E940707A7966CAF7DAF2C
:100470008EAF9FAFA797A596EEADFFADA597FA8774
:10048000E98789859A859E878D878D859E850197C9
:10049000F1F79E878D87000086E090E00E94880338
:1004A0008EE090E00E9488038FE090E00E94880335
:1004B0000000CA59DF4F0FB6F894DEBF0FBECDBFA4
:1004C000DF91CF910895CF93DF93CDB7DEB7A29799
:1004D0000FB6F894DEBF0FBECDBF88E390E0FC01FD
:1004E00080819181A281B38128E330E08860F901A5
:1004F00080839183A283B38380E090E0A0EFB1E496
:1005000089839A83AB83BC8320E030E04AEF54E4D4
:1005100069817A818B819C810E9488076B8B7C8B9F
:100520008D8B9E8B8B899C89AD89BE898D839E83A3
:10053000AF83B88720E030E040E85FE36D817E81E3
:100540008F8198850E94020788232CF481E090E037
:100550009A87898755C020E03FEF4FE757E46D81C8
:100560007E818F8198850E9483078823D9F1D4F1F9
:1005700020E030E040E251E469817A818B819C8106
:100580000E9488076F8B788F898F9A8F8F89988DBB
:10059000A98DBA8D8F87988BA98BBA8B6F85788937
:1005A00089899A890E9407076B8F7C8F8D8F9E8F18
:1005B000AB8DBC8DBA87A98710C088EC90E09C8772
:1005C0008B878B859C850197F1F79C878B87000033
:1005D00089859A8501979A87898789859A85009761
:1005E00061F719C06D817E818F8198850E94070710
:1005F0006F8F78A389A39AA3EF8DF8A1FA87E98773
:1006000089859A859E878D878D859E850197F1F7CF
:100610009E878D87000088E390E0FC0180819181B6
:10062000A281B38128E330E0877FF9018083918341
:10063000A283B3830000A2960FB6F894DEBF0FBE6C
:10064000CDBFDF91CF910895CF93DF93CDB7DEB7C4
:100650008AE390E0FC0180819181A281B3812AE349
:1006600030E08827F90180839183A283B38388E3F4
:1006700090E0FC0180819181A281B38128E330E088
:100680008460F90180839183A283B38388E390E03F
:10069000FC0180819181A281B38128E330E08D7FCC
:1006A000F90180839183A283B3830E94630288E36C
:1006B00090E0FC0180819181A281B38128E330E048
:1006C000837EF90180839183A283B38388E390E0E2
:1006D000FC0180819181A281B38128E330E08D7F8C
:1006E000F90180839183A283B38388E390E0FC01C6
:1006F00080819181A281B38128E330E08D7FF9016F
:1007000080839183A283B3830000DF91CF9108950A
:10071000CF93DF93CDB7DEB7A4970FB6F894DEBFC3
:100720000FBECDBF988B8F870E94240388E390E093
:10073000FC0180819181A281B38128E330E08D7F2B
:10074000F90180839183A283B3838BE390E0DC0182
:100750004D915D916D917C918F859889092E000C4A
:10076000AA0BBB0B2BE330E0842B952BA62BB72BCE
:10077000F90180839183A283B38380E090E0A0EAB3
:10078000B0E489839A83AB83BC8320E030E04AEFF6
:1007900054E469817A818B819C810E9488076D8BEA
:1007A0007E8B8F8B988F8D899E89AF89B88D8D8335
:1007B0009E83AF83B88720E030E040E85FE36D813F
:1007C0007E818F8198850E94020788232CF481E026
:1007D00090E09A87898755C020E03FEF4FE757E4C4
:1007E0006D817E818F8198850E9483078823D9F14E
:1007F000D4F120E030E040E251E469817A818B81DC
:100800009C810E948807698F7A8F8B8F9C8F898D3E
:100810009A8DAB8DBC8D898B9A8BAB8BBC8B698988
:100820007A898B899C890E9407076D8F7E8F8F8FB5
:1008300098A3AD8DBE8DBA87A98710C088EC90E0D3
:100840009C878B878B859C850197F1F79C878B878D
:10085000000089859A8501979A87898789859A8575
:10086000009761F719C06D817E818F8198850E9404
:10087000070769A37AA38BA39CA3E9A1FAA1FA872E
:10088000E98789859A859E878D878D859E850197C5
:10089000F1F79E878D8700000E9463028BE390E052
:1008A000FC0180819181A281B3812BE330E0882714
:1008B000F90180839183A283B3830000A4960FB6CD
:1008C000F894DEBF0FBECDBFDF91CF910895CF93D7
:1008D000DF93CDB7DEB7A3970FB6F894DEBF0FBE98
:1008E000CDBF8F870E94240388E390E0FC018081C4
:1008F0009181A281B38128E330E08260F901808395
:100900009183A283B3838BE390E0DC014D915D91F1
:100910006D917C918F85882F90E0A0E0B0E02BE373
:1009200030E0842B952BA62BB72BF9018083918384
:10093000A283B38380E090E0A0E8BFE389839A8339
:10094000AB83BC8320E030E04AEF54E469817A81D4
:100950008B819C810E9488076C8B7D8B8E8B9F8BFB
:100960008C899D89AE89BF898D839E83AF83B8872B
:1009700020E030E040E85FE36D817E818F819885E3
:100980000E94020788232CF481E090E09A878987EF
:1009900055C020E03FEF4FE757E46D817E818F81A6
:1009A00098850E9483078823D9F1D4F120E030E0B4
:1009B00040E251E469817A818B819C810E948807A1
:1009C000688F798F8A8F9B8F888D998DAA8DBB8D2B
:1009D000888B998BAA8BBB8B688979898A899B893B
:1009E0000E9407076C8F7D8F8E8F9F8FAC8DBD8D82
:1009F000BA87A98710C088EC90E09C878B878B858D
:100A00009C850197F1F79C878B87000089859A85E3
:100A100001979A87898789859A85009761F719C018
:100A20006D817E818F8198850E94070768A379A3D5
:100A30008AA39BA3E8A1F9A1FA87E98789859A850A
:100A40009E878D878D859E850197F1F79E878D877F
:100A500000000E9463028BE390E0FC0180819181A1
:100A6000A281B3812BE330E08827F9018083918351
:100A7000A283B3830000A3960FB6F894DEBF0FBE27
:100A8000CDBFDF91CF910895CF93DF9300D000D0F9
:100A9000CDB7DEB79C838B831A82198228C08B81E5
:100AA0009C819C012F5F3F4F3C832B83FC01808105
:100AB0000E94670489819A8101969A83898389813A
:100AC0009A818031910521F480EC90E00E948803A6
:100AD00089819A818F31910551F41A82198281E0BE
:100AE00090E00E94880380E890E00E9488038B8158
:100AF0009C81FC018081882391F6000000000F900A
:100B00000F900F900F90DF91CF910895CF93DF93C7
:100B1000CDB7DEB789E290E023E3FC01208380E4D7
:100B200090E0FC01208180E490E02F7BFC01208399
:100B300080E490E0FC01208180E490E02F7DFC01C6
:100B400020838BE290E0FC0120818BE290E02D7FFE
:100B5000FC01208380E490E0FC01208180E490E0AF
:100B6000277FFC01208380E490E0FC01208180E469
:100B700090E02260FC01208380E490E0FC01208171
:100B800080E490E02460FC0120838AE290E0FC0194
:100B900020818AE290E02B7FFC0120838AE290E0B2
:100BA000FC0120818AE290E02860FC0120838AE237
:100BB00090E0FC0120818AE290E02061FC0120832A
:100BC0000000DF91CF910895CF93DF930F92CDB7BF
:100BD000DEB7898300008BE290E0FC018081829582
:100BE00086958770882F90E081709927009799F3F8
:100BF0008CE290E02981FC01208300000F90DF91BE
:100C0000CF910895CF93DF93CDB7DEB700008BE28D
:100C100090E0FC018081881F8827881F882F90E042
:100C200081709927009799F38CE290E0FC01808114
:100C3000DF91CF910895CF93DF9300D0CDB7DEB78A
:100C40009A8389830BC089819A81FC0180810E94EB
:100C5000E40589819A8101969A83898389819A81A1
:100C6000FC018081882379F7000000000F900F902D
:100C7000DF91CF910895CF93DF9300D0CDB7DEB74A
:100C80008CE290E09A838983000089819A81FC013B
:100C90008081882399F000008BE290E0FC01808144
:100CA000881F8827881F882F90E0817099270097D8
:100CB00099F78CE290E0FC01808101C080E00F9008
:100CC0000F90DF91CF910895CF93DF9300D000D0A4
:100CD00000D0CDB7DEB76B837C838D839E83CE013E
:100CE00003969A83898389819A81FC0180810E947D
:100CF000E40589819A810196FC0180810E94E405C6
:100D000089819A810296FC0180810E94E405898193
:100D10009A810396FC0180810E94E40500000F90F7
:100D20000F900F900F900F900F90DF91CF9108953B
:100D30000F931F93CF93DF9300D000D000D00F927A
:100D4000CDB7DEB71B82CE0103969A8389830E94BA
:100D50000206282F89819A81FC01208389819A814A
:100D60008C010F5F1F4F0E940206F801808389816A
:100D70009A818C010E5F1F4F0E940206F80180834A
:100D800089819A818C010D5F1F4F0E940206F80134
:100D900080838B81882F90E0A0E0B0E08C839D83DE
:100DA000AE83BF836C817D818E819F8127960FB634
:100DB000F894DEBF0FBECDBFDF91CF911F910F9191
:100DC0000895CF93DF93CDB7DEB70E9441000E9414
:100DD00086058DE40E94E40589E60E94E4058EE61E
:100DE0000E94E40581E60E94E40580E690E00E940E
:100DF0001B0680EC90E00E9488030E9402060E947D
:100E00006704FBCF0E94360708F481E008950E9432
:100E1000620788F09F5798F0B92F9927B751B0F023
:100E2000E1F0660F771F881F991F1AF0BA95C9F76E
:100E300014C0B13091F00E947C07B1E008950C9489
:100E40007C07672F782F8827B85F39F0B93FCCF33C
:100E5000869577956795B395D9F73EF490958095EB
:100E6000709561957F4F8F4F9F4F0895990F0008A0
:100E7000550FAA0BE0E8FEEF16161706E807F9076C
:100E8000C0F012161306E407F50798F0621B730B07
:100E9000840B950B39F40A2661F0232B242B252B88
:100EA00021F408950A2609F4A140A6958FEF811D2B
:100EB000811D089557FD9058440F551F59F05F3F0D
:100EC00071F04795880F97FB991F61F09F3F79F06C
:100ED00087950895121613061406551FF2CF4695EE
:100EE000F1DF08C0161617061806991FF1CF869570
:100EF0007105610508940895E894BB276627772754
:100F0000CB0197F908950E94360708F48FEF0895F2
:100F10000E949B070C940C080E94FE0738F00E9468
:100F2000050820F0952311F00C94F5070C94FB07AD
:100F300011240C947D070E945A0770F3959FC1F30A
:100F4000950F50E0551F629FF001729FBB27F00D77
:100F5000B11D639FAA27F00DB11DAA1F649F6627CC
:100F6000B00DA11D661F829F2227B00DA11D621F1B
:100F7000739FB00DA11D621F839FA00D611D221FD5
:100F8000749F3327A00D611D231F849F600D211DB9
:100F9000822F762F6A2F11249F5750409AF0F1F03C
:100FA00088234AF0EE0FFF1FBB1F661F771F881FA5
:100FB00091505040A9F79E3F510580F00C94F507E1
:100FC0000C947D075F3FE4F3983ED4F386957795C4
:100FD0006795B795F795E7959F5FC1F7FE2B880F4B
:100FE000911D9695879597F9089597F99F6780E8E1
:100FF00070E060E008959FEF80EC089500240A946B
:101000001616170618060906089500240A941216E3
:101010001306140605060895092E0394000C11F416
:10102000882352F0BB0F40F4BF2B11F460FF04C0C3
:0E1030006F5F7F4F8F4F9F4F0895F894FFCF53
:06103E0053616164000033
:00000001FF
