:100000000C942A000C9434000C9434000C943400AA
:100010000C9434000C9434000C9434000C94340090
:100020000C9434000C9434000C9434000C94340080
:100030000C9434000C9434000C9434000C94340070
:100040000C9434000C9434000C9434000C94340060
:100050000C94340011241FBECFE5D8E0DEBFCDBF25
:100060000E9436000C9469020C940000CF93DF9339
:10007000CDB7DEB7A4970FB6F894DEBF0FBECDBFE5
:100080008AE390E0DC018C918AE390E0FC0110822D
:100090008AE390E0DC018C918AE390E02FEFFC0191
:1000A00020838BE390E0DC018C918BE390E0FC01FA
:1000B000108287E390E0DC018C9187E390E0FC0103
:1000C000108287E390E0DC012C9187E390E0206BC5
:1000D000FC01208388E390E0DC018C9188E390E0D0
:1000E000FC01108288E390E0DC012C9188E390E031
:1000F0002061FC0120838DE290E0DC012C918DE2F7
:1001000090E02061FC0120838DE290E0DC012C91E5
:100110008DE290E02064FC01208319821A82B8C02D
:1001200088E390E0DC012C9188E390E02F7EFC01D5
:1001300020838FE290E02981DC012C9300008EE285
:1001400090E0FC018081881F8827881F882F90E01D
:1001500081709927009799F38FE290E0DC018C91F0
:100160008A838BE390E02A81FC01208380E090E089
:10017000AAE7B4E48B839C83AD83BE8320E030E0A8
:100180004AE753E46B817C818D819E810E94D4017A
:100190006D8B7E8B8F8B988F8D899E89AF89B88D63
:1001A0008F839887A987BA8720E030E040E85FE333
:1001B0006F81788589859A850E944E0188232CF469
:1001C00081E090E09C878B8755C020E03FEF4FE7B0
:1001D00057E46F81788589859A850E94CF018823AD
:1001E000D9F1D4F120E030E040E251E46B817C8130
:1001F0008D819E810E94D401698F7A8F8B8F9C8F15
:10020000898D9A8DAB8DBC8D898B9A8BAB8BBC8B7A
:1002100069897A898B899C890E9453016D8F7E8FB1
:100220008F8F98A3AD8DBE8DBC87AB8710C089E141
:1002300090E09E878D878D859E850197F1F79E873B
:100240008D8700008B859C8501979C878B878B858C
:100250009C85009761F719C06F81788589859A859B
:100260000E94530169A37AA38BA39CA3E9A1FAA1DD
:10027000FC87EB878B859C85988B8F878F859889EA
:100280000197F1F7988B8F87000089818F5F8983B1
:100290008981843609F044CF1982FACF0E94820105
:1002A00008F481E008950E94AE0188F09F5798F00D
:1002B000B92F9927B751B0F0E1F0660F771F881F6B
:1002C000991F1AF0BA95C9F714C0B13091F00E9485
:1002D000C801B1E008950C94C801672F782F8827D2
:1002E000B85F39F0B93FCCF3869577956795B395AC
:1002F000D9F73EF490958095709561957F4F8F4F1B
:100300009F4F0895990F0008550FAA0BE0E8FEEFE4
:1003100016161706E807F907C0F012161306E407C9
:10032000F50798F0621B730B840B950B39F40A26C2
:1003300061F0232B242B252B21F408950A2609F4A0
:10034000A140A6958FEF811D811D089557FD9058FE
:10035000440F551F59F05F3F71F04795880F97FB89
:10036000991F61F09F3F79F0879508951216130643
:100370001406551FF2CF4695F1DF08C01616170672
:100380001806991FF1CF86957105610508940895A7
:10039000E894BB2766277727CB0197F908950E9439
:1003A000820108F48FEF08950E94E7010C9458022F
:1003B0000E944A0238F00E94510220F0952311F069
:1003C0000C9441020C94470211240C94C9010E9420
:1003D000A60170F3959FC1F3950F50E0551F629FE2
:1003E000F001729FBB27F00DB11D639FAA27F00D8E
:1003F000B11DAA1F649F6627B00DA11D661F829FB5
:100400002227B00DA11D621F739FB00DA11D621F99
:10041000839FA00D611D221F749F3327A00D611DB6
:10042000231F849F600D211D822F762F6A2F112498
:100430009F5750409AF0F1F088234AF0EE0FFF1FCB
:10044000BB1F661F771F881F91505040A9F79E3F22
:10045000510580F00C9441020C94C9015F3FE4F314
:10046000983ED4F3869577956795B795F795E79578
:100470009F5FC1F7FE2B880F911D9695879597F981
:10048000089597F99F6780E870E060E008959FEF16
:1004900080EC089500240A9416161706180609061B
:1004A000089500240A9412161306140605060895EA
:1004B000092E0394000C11F4882352F0BB0F40F472
:1004C000BF2B11F460FF04C06F5F7F4F8F4F9F4FB2
:0604D0000895F894FFCF2F
:00000001FF
