:020000040800F2
:1000000000280020AD020008FD020008FD020008E3
:10001000FD020008FD020008FD02000800000000CB
:10002000000000000000000000000000FD020008C9
:10003000FD02000800000000FD020008FD020008AB
:10004000FD020008FD020008FD020008FD02000894
:10005000FD020008FD020008FD020008FD02000884
:10006000FD020008FD020008FD020008FD02000874
:10007000FD020008FD020008FD020008FD02000864
:10008000FD020008FD020008FD020008FD02000854
:10009000FD020008FD020008FD020008FD02000844
:1000A000FD020008FD020008FD020008FD02000834
:1000B000FD020008FD020008FD020008FD02000824
:1000C000FD020008FD020008FD020008FD02000814
:1000D000FD020008FD020008FD020008FD02000804
:1000E000FD020008FD02000800000000FD020008FB
:1000F000FD020008FD020008FD020008FD020008E4
:10010000FD020008FD020008FD020008FD020008D3
:10011000FD020008FD020008FD020008FD020008C3
:10012000FD020008FD020008FD020008FD020008B3
:1001300010B5054C237833B9044B13B10448AFF321
:1001400000800123237010BD00000020000000008B
:100150004803000808B5034B1BB103490348AFF33C
:10016000008008BD000000000400002048030008D3
:1001700080B400AF194B00221A60194B00221A609C
:10018000184B00221A60174B00221A60134B1B6891
:10019000124A43F040031360124B1B68114A43F4A8
:1001A000800313600E4B1B680D4A43F0100313606D
:1001B0000B4B1B680A4A23F0C00313600A4B1B68F1
:1001C000094A43F480131360074B1B68064A23F463
:1001D0004003136000BFBD4680BC7047000801406B
:1001E000000C014004080140040C014080B400AF41
:1001F000074B1B68064A43F004031360044B1B685B
:10020000034A43F00803136000BFBD4680BC70473B
:100210001810024080B485B000AF78600023FB6006
:100220000BE00023BB6002E0BB680133BB60BB682E
:10023000FE2BF9D9FB680133FB60FB68FE2BF0D97C
:1002400000BF1437BD4680BC7047000080B500AFCA
:10025000FFF7CCFFFFF78CFF124B1B6803F0020384
:10026000002B0DD1104B1B680F4A83F00203136063
:1002700000BF0C4B1B6803F00203002BF9D00CE00D
:10028000084B1B685B0B03F00103012B05D1064BE8
:100290001B68054A83F4005313600120FFF7BAFF7F
:1002A000DAE700BF080801400C0C01400D48854604
:1002B000AFF300800C480D490D4A002302E0D458EA
:1002C000C4500433C4188C42F9D30A4A0A4C0023A0
:1002D00001E013600432A242FBD300F011F8FFF7F3
:1002E000B5FFFEE7002800200000002000000020ED
:1002F00068030008000000201C000020FEE700004A
:1003000070B500250C4E0D4CA41BA410A54209D1BC
:1003100000F01AF800250A4E0A4CA41BA410A542AE
:1003200005D170BD56F8253098470135EEE756F8EF
:10033000253098470135F2E76003000860030008A4
:100340006003000864030008F8B500BFF8BC08BCEF
:100350009E467047F8B500BFF8BC08BC9E46704783
:04036000550100083B
:04036400310100085B
:04000005080002AD40
:00000001FF
