:100000000C942A000C943F000C943F000C943F0089
:100010000C943F000C943F000C943F000C943F0064
:100020000C943F000C943F000C943F000C943F0054
:100030000C943F000C943F000C943F000C943F0044
:100040000C943F000C943F000C943F000C943F0034
:100050000C943F0011241FBECFE5D8E0DEBFCDBF1A
:1000600010E0A0E6B0E0E2E9F2E102C005900D92F6
:10007000A438B107D9F70E941D080C9447090C94C5
:100080000000CF93DF93CDB7DEB781E390E0FC01B2
:1000900080819181A281B38121E330E0807FF901E9
:1000A00080839183A283B38381E390E0FC0180810C
:1000B0009181A281B38121E330E0806FF9018083D7
:1000C0009183A283B38382E390E0FC0180819181DC
:1000D000A281B38122E330E08F60F90180839183B4
:1000E000A283B38382E390E0FC0180819181A281AD
:1000F000B38122E330E0806FF90180839183A28392
:10010000B3830000DF91CF910895CF93DF9300D0A8
:1001100000D0CDB7DEB71A82198208C182E390E021
:10012000FC0180819181A281B38122E330E0806F64
:10013000F90180839183A283B38382E390E0FC0181
:10014000408151816281738189819A81880F991FD1
:1001500088599F4FFC012081318181E090E002C0ED
:10016000880F991F2A95E2F780959095092E000C2B
:10017000AA0BBB0B22E330E084239523A623B723ED
:10018000F90180839183A283B3831C821B82C2C046
:1001900080E390E0FC0140815181628173818B8119
:1001A0009C81880F991F805A9F4FFC0120813181CB
:1001B00081E090E0022E02C0880F991F0A94E2F7B6
:1001C000092E000CAA0BBB0B84239523A623B7236F
:1001D0000097A105B10509F098C089819A81833003
:1001E000910509F470C089819A818330910511F0DD
:1001F0000CF08BC089819A818230910509F448C046
:1002000089819A818230910511F00CF07EC089813C
:100210009A81009731F089819A8181309105E9F0C6
:1002200074C08B819C81009711F487E387C08B8118
:100230009C818130910511F484E380C08B819C8185
:100240008230910511F481E379C08B819C818330E8
:10025000910509F053C08FE371C08B819C81009799
:1002600011F488E36BC08B819C818130910511F47E
:1002700085E364C08B819C818230910511F482E317
:100280005DC08B819C8183309105D1F580E356C0A0
:100290008B819C81009711F489E350C08B819C81F4
:1002A0008130910511F486E349C08B819C818230B5
:1002B000910511F483E342C08B819C8183309105C9
:1002C00009F58DE33BC08B819C81009711F48FE28F
:1002D00035C08B819C818130910511F48AE22EC05A
:1002E0008B819C818230910511F48DE227C08B8136
:1002F0009C818330910541F48BE220C0000005C051
:10030000000003C0000001C000008B819C810196A9
:100310009C838B838B819C818330910509F00CF445
:1003200037CF89819A8101969A83898389819A81BD
:100330008330910509F00CF4F1CE8EE40F900F900C
:100340000F900F90DF91CF910895CF93DF93CDB7AA
:10035000DEB7C454D1090FB6F894DEBF0FBECDBFCF
:1003600087E390E0FC0180819181A281B38127E342
:1003700030E08E60F90180839183A283B38380E0B3
:1003800090E0A0EAB1E48F87988BA98BBA8B20E02C
:1003900030E04AE753E46F85788989899A890E9419
:1003A000B2086DA37EA38FA398A78DA19EA1AFA134
:1003B000B8A58B8B9C8BAD8BBE8B20E030E040E8EA
:1003C0005FE36B897C898D899E890E942C08882334
:1003D0002CF481E090E0988F8F8B55C020E03FEFA8
:1003E0004FE757E46B897C898D899E890E94AD080F
:1003F0008823D9F1D4F120E030E040E251E46F8568
:10040000788989899A890E94B20869A77AA78BA7F7
:100410009CA789A59AA5ABA5BCA589A39AA3ABA3C4
:10042000BCA369A17AA18BA19CA10E9431086DA7F0
:100430007EA78FA798ABADA5BEA5B88FAF8B10C018
:1004400089E190E09A8F898F898D9A8D0197F1F7D4
:100450009A8F898F00008F89988D0197988F8F8B45
:100460008F89988D009761F719C06B897C898D8978
:100470009E890E94310869AB7AAB8BAB9CABE9A932
:10048000FAA9F88FEF8B8F89988D9C8F8B8F8B8D2E
:100490009C8D0197F1F79C8F8B8F00000E941104B7
:1004A0008BE390E0FC0180819181A281B3812BE3F9
:1004B00030E08827F90180839183A283B38380E0B1
:1004C00090E0A0EAB1E489839A83AB83BC8320E007
:1004D00030E04AE753E469817A818B819C810E94F4
:1004E000B2086DAB7EAB8FAB98AF8DA99EA9AFA9BB
:1004F000B8AD8D839E83AF83B88720E030E040E8BD
:100500005FE36D817E818F8198850E942C0888230E
:100510002CF481E090E09A8789875CC020E03FEF6F
:100520004FE757E46D817E818F8198850E94AD08E9
:10053000882309F00CF43CC020E030E040E251E4B4
:1005400069817A818B819C810E94B20869AF7AAF00
:100550008BAF9CAF89AD9AADABADBCAD8D8F9E8F8F
:10056000AF8FB8A36D8D7E8D8F8D98A10E943108BD
:1005700021966CAF7DAF8EAF9FAF2197ADADBEAD75
:10058000BA87A98710C089E190E09C878B878B850B
:100590009C850197F1F79C878B87000089859A8558
:1005A00001979A87898789859A85009761F71DC089
:1005B0006D817E818F8198850E94310825966CAF70
:1005C0007DAF8EAF9FAF25972396EEADFFAD2397FE
:1005D000FA87E98789859A859E878D878D859E858F
:1005E0000197F1F79E878D87000081E090E00E94DF
:1005F00075048BE390E0FC0180819181A281B3813D
:100600002BE330E08827F90180839183A283B383B1
:100610008BE390E0FC0180819181A281B3812BE387
:1006200030E08260F90180839183A283B3830E94CA
:1006300050038BE390E0FC0180819181A281B38122
:100640002BE330E08827F90180839183A283B38371
:100650008BE390E0FC0180819181A281B3812BE347
:1006600030E08862F90180839183A283B3830E9482
:10067000500386E090E00E9475048EE090E00E94B6
:1006800075048FE090E00E9475040000CC5BDF4FA2
:100690000FB6F894DEBF0FBECDBFDF91CF910895A6
:1006A000CF93DF93CDB7DEB7A2970FB6F894DEBF36
:1006B0000FBECDBF88E390E0FC0180819181A281D3
:1006C000B38128E330E08860F90180839183A283BD
:1006D000B38380E090E0A8E4B2E489839A83AB839B
:1006E000BC8320E030E04AE753E469817A818B8162
:1006F0009C810E94B2086B8B7C8B8D8B9E8B8B892F
:100700009C89AD89BE898D839E83AF83B88720E0A5
:1007100030E040E85FE36D817E818F8198850E94A3
:100720002C0888232CF481E090E09A87898755C0B3
:1007300020E03FEF4FE757E46D817E818F81988500
:100740000E94AD088823D9F1D4F120E030E040E2E6
:1007500051E469817A818B819C810E94B2086F8B00
:10076000788F898F9A8F8F89988DA98DBA8D8F8771
:10077000988BA98BBA8B6F85788989899A890E9411
:1007800031086B8F7C8F8D8F9E8FAB8DBC8DBA8720
:10079000A98710C089E190E09C878B878B859C8519
:1007A0000197F1F79C878B87000089859A850197CF
:1007B0009A87898789859A85009761F719C06D8125
:1007C0007E818F8198850E9431086F8F78A389A3DD
:1007D0009AA3EF8DF8A1FA87E98789859A859E8784
:1007E0008D878D859E850197F1F79E878D87000007
:1007F00088E390E0FC0180819181A281B38128E3AC
:1008000030E0877FF90180839183A283B383000066
:10081000A2960FB6F894DEBF0FBECDBFDF91CF9189
:100820000895CF93DF93CDB7DEB78AE390E0FC0164
:1008300080819181A281B3812AE330E08827F90188
:1008400080839183A283B38388E390E0FC0180815D
:100850009181A281B38128E330E08460F901808333
:100860009183A283B38388E390E0FC01808191812E
:10087000A281B38128E330E08D7FF90180839183E9
:10088000A283B3830E94500388E390E0FC0180813F
:100890009181A281B38128E330E0837EF9018083D6
:1008A0009183A283B38388E390E0FC0180819181EE
:1008B000A281B38128E330E08D7FF90180839183A9
:1008C000A283B38388E390E0FC0180819181A281BF
:1008D000B38128E330E08D7FF90180839183A28387
:1008E000B3830000DF91CF910895CF93DF93CDB70D
:1008F000DEB7A4970FB6F894DEBF0FBECDBF988BBE
:100900008F870E94110488E390E0FC01808191812F
:10091000A281B38128E330E08D7FF9018083918348
:10092000A283B3838BE390E0FC0180819181A2815B
:10093000B3812BE330E08827F90180839183A28380
:10094000B3838BE390E0DC014D915D916D917C91DF
:100950008F859889092E000CAA0BBB0B807F9927E5
:10096000AA27BB272BE330E0842B952BA62BB72B94
:10097000F90180839183A283B38380E090E0A0EAB1
:10098000B0E489839A83AB83BC8320E030E04AE7FC
:1009900053E469817A818B819C810E94B2086D8BBE
:1009A0007E8B8F8B988F8D899E89AF89B88D8D8333
:1009B0009E83AF83B88720E030E040E85FE36D813D
:1009C0007E818F8198850E942C0888232CF481E0F9
:1009D00090E09A87898755C020E03FEF4FE757E4C2
:1009E0006D817E818F8198850E94AD088823D9F121
:1009F000D4F120E030E040E251E469817A818B81DA
:100A00009C810E94B208698F7A8F8B8F9C8F898D11
:100A10009A8DAB8DBC8D898B9A8BAB8BBC8B698986
:100A20007A898B899C890E9431086D8F7E8F8F8F88
:100A300098A3AD8DBE8DBA87A98710C089E190E0DB
:100A40009C878B878B859C850197F1F79C878B878B
:100A5000000089859A8501979A87898789859A8573
:100A6000009761F719C06D817E818F8198850E9402
:100A7000310869A37AA38BA39CA3E9A1FAA1FA8701
:100A8000E98789859A859E878D878D859E850197C3
:100A9000F1F79E878D8700000E9450038BE390E062
:100AA000FC0180819181A281B3812BE330E0882712
:100AB000F90180839183A283B3838BE390E0DC010F
:100AC0004D915D916D917C918F85988982959295DC
:100AD000907F9827807F9827092E000CAA0BBB0BCC
:100AE0009927AA27BB272BE330E0842B952BA62B35
:100AF000B72BF90180839183A283B3830E945003B3
:100B00008BE390E0FC0180819181A281B3812BE392
:100B100030E08827F90180839183A283B3830000AA
:100B2000A4960FB6F894DEBF0FBECDBFDF91CF9174
:100B30000895CF93DF93CDB7DEB7C554D1090FB673
:100B4000F894DEBF0FBECDBF8D8F0E94110488E3E5
:100B500090E0FC0180819181A281B38128E330E0A3
:100B60008260F90180839183A283B3838BE390E059
:100B7000DC014D915D916D917C918D8D882F90E080
:100B8000A0E0B0E0807F9927AA27BB272BE330E0C5
:100B9000842B952BA62BB72BF90180839183A283FD
:100BA000B38380E090E0A0EAB0E48F87988BA98BB4
:100BB000BA8B20E030E04AE753E46F857889898971
:100BC0009A890E94B2086EA37FA388A799A78EA1D5
:100BD0009FA1A8A5B9A58B8B9C8BAD8BBE8B20E06C
:100BE00030E040E85FE36B897C898D899E890E94B3
:100BF0002C0888232CF481E090E0988F8F8B55C0CF
:100C000020E03FEF4FE757E46B897C898D899E890F
:100C10000E94AD088823D9F1D4F120E030E040E211
:100C200051E46F85788989899A890E94B2086AA7F8
:100C30007BA78CA79DA78AA59BA5ACA5BDA58AA3CC
:100C40009BA3ACA3BDA36AA17BA18CA19DA10E9483
:100C500031086EA77FA788AB99ABAEA5BFA5B88FAB
:100C6000AF8B10C089E190E09A8F898F898D9A8D22
:100C70000197F1F79A8F898F00008F89988D0197DE
:100C8000988F8F8B8F89988D009761F719C06B892A
:100C90007C898D899E890E9431086AAB7BAB8CABC5
:100CA0009DABEAA9FBA9F88FEF8B8F89988D9C8F5C
:100CB0008B8F8B8D9C8D0197F1F79C8F8B8F000014
:100CC0000E9450038BE390E0FC0180819181A2811E
:100CD000B3812BE330E08827F90180839183A283DD
:100CE000B3838BE390E0DC014D915D916D917C913C
:100CF0008D8D882F90E082959295907F9827807FA8
:100D00009827092E000CAA0BBB0B9927AA27BB27F3
:100D10002BE330E0842B952BA62BB72BF901808396
:100D20009183A283B38380E090E0A0E8BFE389834E
:100D30009A83AB83BC8320E030E04AE753E46981C7
:100D40007A818B819C810E94B2086EAB7FAB88AFA9
:100D500099AF8EA99FA9A8ADB9AD8D839E83AF83AE
:100D6000B88720E030E040E85FE36D817E818F81CD
:100D700098850E942C0888232CF481E090E09A87C3
:100D800089875CC020E03FEF4FE757E46D817E81AB
:100D90008F8198850E94AD08882309F00CF43CC02F
:100DA00020E030E040E251E469817A818B819C81CE
:100DB0000E94B2086AAF7BAF8CAF9DAF8AAD9BAD8E
:100DC000ACADBDAD8E8F9F8FA8A3B9A36E8D7F8D67
:100DD00088A199A10E94310822966CAF7DAF8EAF99
:100DE0009FAF2297AEADBFADBA87A98710C089E18A
:100DF00090E09C878B878B859C850197F1F79C877A
:100E00008B87000089859A8501979A8789878985CC
:100E10009A85009761F71DC06D817E818F819885CD
:100E20000E94310826966CAF7DAF8EAF9FAF26979C
:100E30002496EEADFFAD2497FA87E98789859A85D8
:100E40009E878D878D859E850197F1F79E878D877B
:100E500000000E9450038BE390E0FC0180819181AF
:100E6000A281B3812BE330E08827F901808391834D
:100E7000A283B3830000CB5BDF4F0FB6F894DEBFD5
:100E80000FBECDBFDF91CF910895CF93DF93CDB744
:100E9000DEB7A6970FB6F894DEBF0FBECDBF9A8B14
:100EA000898B1A821982B7C089899A899C012F5F20
:100EB0003F4F3A8B298BDC018C910E9499058981E7
:100EC0009A8101969A83898389819A8180319105DB
:100ED00021F480EC90E00E94750489819A818F3121
:100EE000910551F41A82198281E090E00E94750404
:100EF00080E890E00E94750480E090E0A8ECB2E405
:100F00008B839C83AD83BE8320E030E04AE753E4CB
:100F10006B817C818D819E810E94B2086F8B788F5E
:100F2000898F9A8F8F89988DA98DBA8D8F83988795
:100F3000A987BA8720E030E040E85FE36F817885D9
:100F400089859A850E942C0888232CF481E090E002
:100F50009C878B8755C020E03FEF4FE757E46F81B8
:100F6000788589859A850E94AD088823D9F1D4F1C6
:100F700020E030E040E251E46B817C818D819E81F4
:100F80000E94B2086B8F7C8F8D8F9E8F8B8D9C8D76
:100F9000AD8DBE8D8B8B9C8BAD8BBE8B6B897C8915
:100FA0008D899E890E9431086F8F78A389A39AA3A7
:100FB000AF8DB8A1BC87AB8710C089E190E09E8758
:100FC0008D878D859E850197F1F79E878D8700001F
:100FD0008B859C8501979C878B878B859C8500974B
:100FE00061F719C06F81788589859A850E943108DB
:100FF0006BA37CA38DA39EA3EBA1FCA1FC87EB8735
:101000008B859C85988B8F878F8598890197F1F7C1
:10101000988B8F87000089899A89DC018C918823BD
:1010200009F042CF00000000A6960FB6F894DEBF8C
:101030000FBECDBFDF91CF910895CF93DF93CDB792
:10104000DEB70E94A50180E790E00E94450780E09E
:1010500090E0DF91CF9108950E94600808F481E04C
:1010600008950E948C0888F09F5798F0B92F99270F
:10107000B751B0F0E1F0660F771F881F991F1AF083
:10108000BA95C9F714C0B13091F00E94A608B1E03A
:1010900008950C94A608672F782F8827B85F39F039
:1010A000B93FCCF3869577956795B395D9F73EF41C
:1010B00090958095709561957F4F8F4F9F4F0895C4
:1010C000990F0008550FAA0BE0E8FEEF1616170659
:1010D000E807F907C0F012161306E407F50798F0C1
:1010E000621B730B840B950B39F40A2661F0232BDA
:1010F000242B252B21F408950A2609F4A140A69556
:101100008FEF811D811D089557FD9058440F551F85
:1011100059F05F3F71F04795880F97FB991F61F079
:101120009F3F79F087950895121613061406551FF0
:10113000F2CF4695F1DF08C0161617061806991F5C
:10114000F1CF86957105610508940895E894BB2751
:1011500066277727CB0197F908950E94600808F465
:101160008FEF08950E94C5080C9436090E94280943
:1011700038F00E942F0920F0952311F00C941F09DC
:101180000C94250911240C94A7080E94840870F37C
:10119000959FC1F3950F50E0551F629FF001729F1C
:1011A000BB27F00DB11D639FAA27F00DB11DAA1F2B
:1011B000649F6627B00DA11D661F829F2227B00D78
:1011C000A11D621F739FB00DA11D621F839FA00D03
:1011D000611D221F749F3327A00D611D231F849F53
:1011E000600D211D822F762F6A2F11249F575040AA
:1011F0009AF0F1F088234AF0EE0FFF1FBB1F661F25
:10120000771F881F91505040A9F79E3F510580F0ED
:101210000C941F090C94A7085F3FE4F3983ED4F3A5
:10122000869577956795B795F795E7959F5FC1F791
:10123000FE2B880F911D9695879597F9089597F93C
:101240009F6780E870E060E008959FEF80EC08956C
:1012500000240A9416161706180609060895002495
:101260000A9412161306140605060895092E03940F
:10127000000C11F4882352F0BB0F40F4BF2B11F483
:1012800060FF04C06F5F7F4F8F4F9F4F0895F894AA
:02129000FFCF8E
:101292000000010002000300040005000600070030
:1012A20045454545454545454545454545454545EC
:0412B2004545450069
:00000001FF
