:100000000C942A000C94D5000C94AC010C9483023F
:100010000C9434000C9434000C9434000C94340090
:100020000C9434000C9434000C9434000C94340080
:100030000C9434000C9434000C9434000C94340070
:100040000C9434000C9434000C9434000C94340060
:100050000C94340011241FBECFE5D8E0DEBFCDBF25
:100060000E94CA000C9475040C940000CF93DF9397
:10007000CDB7DEB781E390E0FC012081318181E3DF
:1000800090E02B7FFC013183208381E390E0FC0131
:100090002081318181E390E0277FFC01318320833F
:1000A00087E390E0FC012081318187E390E02B7FA2
:1000B000FC013183208382E390E0FC0120813181C7
:1000C00082E390E02B7FFC013183208382E390E088
:1000D000FC012081318182E390E0277FFC013183A4
:1000E000208388E390E0FC012081318188E390E067
:1000F0002B7FFC013183208381E390E0FC01208190
:10010000318181E390E0206EFC013183208382E322
:1001100090E0FC012081318182E390E02F71FC01AD
:10012000318320830000DF91CF910895CF93DF9337
:10013000CDB7DEB784E590E0FC012081318184E514
:1001400090E02068FC013183208385E590E0FC018C
:100150002081318185E590E02C60FC013183208392
:1001600085E590E0FC012081318185E590E021600A
:10017000FC01318320838BE590E0FC0120813181FB
:100180008BE590E0206EFC01318320830000DF913D
:10019000CF910895CF93DF93CDB7DEB70E9436009D
:1001A0000E94960078940000FECF1F920F920FB627
:1001B0000F9211242F933F934F935F936F937F93ED
:1001C0008F939F93AF93BF93EF93FF93CF93DF935F
:1001D000CDB7DEB7A297DEBFCDBF82E390E0DC01F2
:1001E0002D913C9182E390E02062FC0131832083D9
:1001F00080E090E0AAE7B4E489839A83AB83BC8370
:1002000020E030E04AEF54E469817A818B819C815F
:100210000E94E0036B8B7C8B8D8B9E8B8B899C89E2
:10022000AD89BE898D839E83AF83B88720E030E09F
:1002300040E85FE36D817E818F8198850E945A033B
:1002400088232CF481E090E09A87898755C020E0CC
:100250003FEF4FE757E46D817E818F8198850E9443
:10026000DB038823D9F1D4F120E030E040E251E40F
:1002700069817A818B819C810E94E0036F8B788FEA
:10028000898F9A8F8F89988DA98DBA8D8F87988B3A
:10029000A98BBA8B6F85788989899A890E945F03B7
:1002A0006B8F7C8F8D8F9E8FAB8DBC8DBA87A9870E
:1002B00010C088EC90E09C878B878B859C8501978C
:1002C000F1F79C878B87000089859A8501979A872B
:1002D000898789859A85009761F719C06D817E812C
:1002E0008F8198850E945F036F8F78A389A39AA35B
:1002F000EF8DF8A1FA87E98789859A859E878D8792
:100300008D859E850197F1F79E878D87000082E39A
:1003100090E0DC012D913C9182E390E02F7DFC0187
:10032000318320830000A2960FB6F894DEBF0FBE83
:10033000CDBFDF91CF91FF91EF91BF91AF919F9191
:100340008F917F916F915F914F913F912F910F907E
:100350000FBE0F901F9018951F920F920FB60F921D
:1003600011242F933F934F935F936F937F938F93BA
:100370009F93AF93BF93EF93FF93CF93DF93CDB74B
:10038000DEB7A297DEBFCDBF82E390E0DC012D9106
:100390003C9182E390E02064FC013183208380E083
:1003A00090E0AAE7B4E489839A83AB83BC8320E01E
:1003B00030E04AEF54E469817A818B819C810E940C
:1003C000E0036B8B7C8B8D8B9E8B8B899C89AD899D
:1003D000BE898D839E83AF83B88720E030E040E8FC
:1003E0005FE36D817E818F8198850E945A03882307
:1003F0002CF481E090E09A87898755C020E03FEF98
:100400004FE757E46D817E818F8198850E94DB03E1
:100410008823D9F1D4F120E030E040E251E4698151
:100420007A818B819C810E94E0036F8B788F898F0A
:100430009A8F8F89988DA98DBA8D8F87988BA98B6C
:10044000BA8B6F85788989899A890E945F036B8F3F
:100450007C8F8D8F9E8FAB8DBC8DBA87A98710C086
:1004600088EC90E09C878B878B859C850197F1F7C2
:100470009C878B87000089859A8501979A87898751
:1004800089859A85009761F719C06D817E818F817A
:1004900098850E945F036F8F78A389A39AA3EF8D3D
:1004A000F8A1FA87E98789859A859E878D878D854A
:1004B0009E850197F1F79E878D87000082E390E08B
:1004C000DC012D913C9182E390E02F7BFC01318394
:1004D00020830000A2960FB6F894DEBF0FBECDBFFA
:1004E000DF91CF91FF91EF91BF91AF919F918F914C
:1004F0007F916F915F914F913F912F910F900FBE20
:100500000F901F9018951F920F920FB60F92112403
:100510002F933F934F935F936F937F938F939F930B
:10052000AF93BF93EF93FF93CF93DF93CDB7DEB736
:10053000A297DEBFCDBF82E390E0DC012D913C911C
:1005400082E390E02068FC013183208380E090E02A
:10055000AAE7B4E489839A83AB83BC8320E030E0CC
:100560004AEF54E469817A818B819C810E94E00387
:100570006B8B7C8B8D8B9E8B8B899C89AD89BE8987
:100580008D839E83AF83B88720E030E040E85FE34F
:100590006D817E818F8198850E945A0388232CF477
:1005A00081E090E09A87898755C020E03FEF4FE7D0
:1005B00057E46D817E818F8198850E94DB038823BB
:1005C000D9F1D4F120E030E040E251E469817A8150
:1005D0008B819C810E94E0036F8B788F898F9A8F2B
:1005E0008F89988DA98DBA8D8F87988BA98BBA8B9F
:1005F0006F85788989899A890E945F036B8F7C8FC8
:100600008D8F9E8FAB8DBC8DBA87A98710C088EC6B
:1006100090E09C878B878B859C850197F1F79C8761
:100620008B87000089859A8501979A8789878985B4
:100630009A85009761F719C06D817E818F819885B9
:100640000E945F036F8F78A389A39AA3EF8DF8A10F
:10065000FA87E98789859A859E878D878D859E850E
:100660000197F1F79E878D87000082E390E0DC011F
:100670002D913C9182E390E02F77FC013183208320
:100680000000A2960FB6F894DEBF0FBECDBFDF917B
:10069000CF91FF91EF91BF91AF919F918F917F91FA
:1006A0006F915F914F913F912F910F900FBE0F90DF
:1006B0001F9018950E948E0308F481E008950E940F
:1006C000BA0388F09F5798F0B92F9927B751B0F027
:1006D000E1F0660F771F881F991F1AF0BA95C9F7C6
:1006E00014C0B13091F00E94D403B1E008950C948D
:1006F000D403672F782F8827B85F39F0B93FCCF340
:10070000869577956795B395D9F73EF49095809542
:10071000709561957F4F8F4F9F4F0895990F0008F7
:10072000550FAA0BE0E8FEEF16161706E807F907C3
:10073000C0F012161306E407F50798F0621B730B5E
:10074000840B950B39F40A2661F0232B242B252BDF
:1007500021F408950A2609F4A140A6958FEF811D82
:10076000811D089557FD9058440F551F59F05F3F64
:1007700071F04795880F97FB991F61F09F3F79F0C3
:1007800087950895121613061406551FF2CF469545
:10079000F1DF08C0161617061806991FF1CF8695C7
:1007A0007105610508940895E894BB2766277727AB
:1007B000CB0197F908950E948E0308F48FEF0895F6
:1007C0000E94F3030C9464040E94560438F00E94C3
:1007D0005D0420F0952311F00C944D040C94530407
:1007E00011240C94D5030E94B20370F3959FC1F3BA
:1007F000950F50E0551F629FF001729FBB27F00DCF
:10080000B11D639FAA27F00DB11DAA1F649F662723
:10081000B00DA11D661F829F2227B00DA11D621F72
:10082000739FB00DA11D621F839FA00D611D221F2C
:10083000749F3327A00D611D231F849F600D211D10
:10084000822F762F6A2F11249F5750409AF0F1F093
:1008500088234AF0EE0FFF1FBB1F661F771F881FFC
:1008600091505040A9F79E3F510580F00C944D04E3
:100870000C94D5035F3FE4F3983ED4F386957795C7
:100880006795B795F795E7959F5FC1F7FE2B880FA2
:10089000911D9695879597F9089597F99F6780E838
:1008A00070E060E008959FEF80EC089500240A94C2
:1008B0001616170618060906089500240A9412163B
:1008C0001306140605060895092E0394000C11F46E
:1008D000882352F0BB0F40F4BF2B11F460FF04C01B
:0E08E0006F5F7F4F8F4F9F4F0895F894FFCFAB
:00000001FF
