:100000000C942A000C9434000C9434000C943400AA
:100010000C9434000C9434000C9434000C94340090
:100020000C9434000C9434000C9434000C94340080
:100030000C9434000C9434000C9434000C94340070
:100040000C9434000C9434000C9434000C94340060
:100050000C94340011241FBECFE5D8E0DEBFCDBF25
:100060000E9436000C94B0000C940000CF93DF93F4
:1000700000D0CDB7DEB78AE390E0FC0180818AE34F
:1000800090E0FC0110828AE390E0FC0180818AE329
:1000900090E02FEFFC0120838BE390E0FC01808156
:1000A0008BE390E0FC01108287E390E0FC0180810B
:1000B00087E390E0FC01108287E390E0FC0120815F
:1000C00087E390E02064FC0120838BE390E0FC0157
:1000D00080818BE390E0FC0110828DE290E0FC01D6
:1000E00020818DE290E02F7EFC0120838DE290E064
:1000F000FC0120818DE290E02064FC0120831982C4
:100100001A8229C088E390E0FC01208188E390E016
:100110002F7EFC0120838FE290E0FC0180818A83A6
:1001200000008EE290E0FC018081881F8827881FF4
:10013000882F90E081709927009799F38FE290E0E3
:100140002981FC0120838BE390E02A81FC0120833C
:1001500089818F5F898389818436A1F61982FBCFDB
:04016000F894FFCF41
:00000001FF
