:100000000C942A000C9434000C9434000C943400AA
:100010000C9434000C9434000C9434000C94340090
:100020000C9434000C9434000C9434000C94340080
:100030000C9434000C9434000C9434000C94340070
:100040000C9434000C9434000C9434000C94340060
:100050000C94340011241FBECFE5D4E0DEBFCDBF29
:100060000E9454000C946F040C940000CF93DF9313
:10007000CDB7DEB782E390E0FC012081318182E3DD
:1000800090E02227FC013183208381E390E0FC0192
:100090002081318181E390E0206FFC013183208356
:1000A0000000DF91CF910895CF93DF93CDB7DEB7F6
:1000B000C858D1090FB6F894DEBF0FBECDBF0E945D
:1000C000360082E390E0DC012D913C9182E390E0E8
:1000D0002062FC013183208380E090E0AAEFB3E44A
:1000E0008BA79CA7ADA7BEA720E030E04AE753E46A
:1000F0006BA57CA58DA59EA50E94DA032D966CAFFD
:100100007DAF8EAF9FAF2D972D968CAD9DADAEADD3
:10011000BFAD2D978FA798ABA9ABBAAB20E030E06D
:1001200040E85FE36FA578A989A99AA90E945403C2
:1001300088232CF481E090E09CAB8BAB66C020E080
:100140003FEF4FE757E46FA578A989A99AA90E94C4
:10015000D503882309F00CF446C020E030E040E2EB
:1001600051E46BA57CA58DA59EA50E94DA0361963E
:100170006CAF7DAF8EAF9FAF619761968CAD9DAD3B
:10018000AEADBFAD619729968CAF9DAFAEAFBFAF9F
:10019000299729966CAD7DAD8EAD9FAD29970E94B4
:1001A000590365966CAF7DAF8EAF9FAF6597639631
:1001B000AEADBFAD6397BCABABAB10C089E190E017
:1001C0009EAB8DAB8DA99EA90197F1F79EAB8DAB30
:1001D00000008BA99CA901979CAB8BAB8BA99CA918
:1001E000009761F71DC06FA578A989A99AA90E94F7
:1001F000590369966CAF7DAF8EAF9FAF69976796D5
:10020000EEADFFAD6797FCABEBAB8BA99CA998AFAC
:100210008FAB8FA998AD0197F1F798AF8FAB000026
:1002200082E390E0DC012D913C9182E390E02F7D10
:10023000FC013183208382E390E0DC012D913C912D
:1002400082E390E02064FC013183208380E090E031
:10025000AAEFB3E48D8F9E8FAF8FB8A320E030E07C
:100260004AE753E46D8D7E8D8F8D98A10E94DA034D
:100270006D966CAF7DAF8EAF9FAF6D976D968CAD69
:100280009DADAEADBFAD6D9789A39AA3ABA3BCA343
:1002900020E030E040E85FE369A17AA18BA19CA156
:1002A0000E94540388232CF481E090E09EA38DA348
:1002B00066C020E03FEF4FE757E469A17AA18BA128
:1002C0009CA10E94D503882309F00CF446C020E0CD
:1002D00030E040E251E46D8D7E8D8F8D98A10E94BB
:1002E000DA03A1966CAF7DAF8EAF9FAFA197A196B9
:1002F0008CAD9DADAEADBFADA19725968CAF9DAF3A
:10030000AEAFBFAF259725966CAD7DAD8EAD9FADE1
:1003100025970E945903A5966CAF7DAF8EAF9FAF16
:10032000A597A396AEADBFADA397BEA3ADA310C0D6
:1003300089E190E098A78FA38FA198A50197F1F785
:1003400098A78FA300008DA19EA101979EA38DA3C6
:100350008DA19EA1009761F71DC069A17AA18BA113
:100360009CA10E945903A9966CAF7DAF8EAF9FAF41
:10037000A997A796EEADFFADA797FEA3EDA38DA11C
:100380009EA19AA789A789A59AA50197F1F79AA78F
:1003900089A7000082E390E0DC012D913C9182E38B
:1003A00090E02F7BFC013183208382E390E0DC012D
:1003B0002D913C9182E390E02068FC013183208301
:1003C00080E090E0AAEFB3E48F87988BA98BBA8B7B
:1003D00020E030E04AE753E46F85788989899A897B
:1003E0000E94DA03AD966CAF7DAF8EAF9FAFAD9735
:1003F000AD968CAD9DADAEADBFADAD978B8B9C8BEF
:10040000AD8BBE8B20E030E040E85FE36B897C89F8
:100410008D899E890E94540388232CF481E090E00A
:10042000988F8F8B66C020E03FEF4FE757E46B89D2
:100430007C898D899E890E94D503882309F00CF45C
:1004400046C020E030E040E251E46F857889898938
:100450009A890E94DA03E1966CAF7DAF8EAF9FAFB1
:10046000E197E1968CAD9DADAEADBFADE197219624
:100470008CAF9DAFAEAFBFAF219721966CAD7DAD78
:100480008EAD9FAD21970E945903E5966CAF7DAF6D
:100490008EAF9FAFE597E396AEADBFADE397B88F54
:1004A000AF8B10C089E190E09A8F898F898D9A8DEA
:1004B0000197F1F79A8F898F00008F89988D0197A6
:1004C000988F8F8B8F89988D009761F71DC06B89EE
:1004D0007C898D899E890E945903E9966CAF7DAF16
:1004E0008EAF9FAFE997E796EEADFFADE797F88F38
:1004F000EF8B8F89988D9C8F8B8F8B8D9C8D019727
:10050000F1F79C8F8B8F000082E390E0DC012D914E
:100510003C9182E390E02F77FC013183208382E3DA
:1005200090E0DC012D913C9182E390E02061FC01A0
:100530003183208380E090E4ACE9B5E489839A8339
:10054000AB83BC8320E030E04AE753E469817A81E1
:100550008B819C810E94DA03ED966CAF7DAF8EAFEC
:100560009FAFED97ED968CAD9DADAEADBFADED9768
:100570008D839E83AF83B88720E030E040E85FE35F
:100580006D817E818F8198850E94540388232CF48D
:1005900081E090E09A8789876EC020E03FEF4FE7C7
:1005A00057E46D817E818F8198850E94D5038823D1
:1005B00009F00CF44AC020E030E040E251E46981E7
:1005C0007A818B819C810E94DA03C358DF4F688354
:1005D00079838A839B83CD57D040C358DF4F88816E
:1005E0009981AA81BB81CD57D04089AF9AAFABAF7B
:1005F000BCAF69AD7AAD8BAD9CAD0E945903CF57AE
:10060000DF4F688379838A839B83C158D040CF575B
:10061000DF4FA881B981C158D040BA87A98710C0DF
:1006200089E190E09C878B878B859C850197F1F70A
:100630009C878B87000089859A8501979A8789878F
:1006400089859A85009761F721C06D817E818F81B0
:1006500098850E945903CB57DF4F688379838A833B
:100660009B83C558D040CB57DF4FE881F981C558EF
:10067000D040FA87E98789859A859E878D878D8501
:100680009E850197F1F79E878D87000082E390E0B9
:10069000DC012D913C91119782E390E02F7EFC01CB
:1006A0003183208300000DCD0E94880308F481E08F
:1006B00008950E94B40388F09F5798F0B92F9927A6
:1006C000B751B0F0E1F0660F771F881F991F1AF03D
:1006D000BA95C9F714C0B13091F00E94CE03B1E0D1
:1006E00008950C94CE03672F782F8827B85F39F0D0
:1006F000B93FCCF3869577956795B395D9F73EF4D6
:1007000090958095709561957F4F8F4F9F4F08957D
:10071000990F0008550FAA0BE0E8FEEF1616170612
:10072000E807F907C0F012161306E407F50798F07A
:10073000621B730B840B950B39F40A2661F0232B93
:10074000242B252B21F408950A2609F4A140A6950F
:100750008FEF811D811D089557FD9058440F551F3F
:1007600059F05F3F71F04795880F97FB991F61F033
:100770009F3F79F087950895121613061406551FAA
:10078000F2CF4695F1DF08C0161617061806991F16
:10079000F1CF86957105610508940895E894BB270B
:1007A00066277727CB0197F908950E94880308F4FC
:1007B0008FEF08950E94ED030C945E040E94500494
:1007C00038F00E94570420F0952311F00C94470450
:1007D0000C944D0411240C94CF030E94AC0370F3CD
:1007E000959FC1F3950F50E0551F629FF001729FD6
:1007F000BB27F00DB11D639FAA27F00DB11DAA1FE5
:10080000649F6627B00DA11D661F829F2227B00D31
:10081000A11D621F739FB00DA11D621F839FA00DBC
:10082000611D221F749F3327A00D611D231F849F0C
:10083000600D211D822F762F6A2F11249F57504063
:100840009AF0F1F088234AF0EE0FFF1FBB1F661FDE
:10085000771F881F91505040A9F79E3F510580F0A7
:100860000C9447040C94CF035F3FE4F3983ED4F319
:10087000869577956795B795F795E7959F5FC1F74B
:10088000FE2B880F911D9695879597F9089597F9F6
:100890009F6780E870E060E008959FEF80EC089526
:1008A00000240A941616170618060906089500244F
:1008B0000A9412161306140605060895092E0394C9
:1008C000000C11F4882352F0BB0F40F4BF2B11F43D
:1008D00060FF04C06F5F7F4F8F4F9F4F0895F89464
:0208E000FFCF48
:00000001FF
